{
  "address": "0x3AdeE00c95c3B7700b0dA4fcdE856617c9472515",
  "abi": [
    {
      "inputs": [],
      "stateMutability": "nonpayable",
      "type": "constructor"
    },
    {
      "anonymous": false,
      "inputs": [
        {
          "indexed": true,
          "internalType": "address",
          "name": "owner",
          "type": "address"
        },
        {
          "indexed": true,
          "internalType": "address",
          "name": "approved",
          "type": "address"
        },
        {
          "indexed": true,
          "internalType": "uint256",
          "name": "tokenId",
          "type": "uint256"
        }
      ],
      "name": "Approval",
      "type": "event"
    },
    {
      "anonymous": false,
      "inputs": [
        {
          "indexed": true,
          "internalType": "address",
          "name": "owner",
          "type": "address"
        },
        {
          "indexed": true,
          "internalType": "address",
          "name": "operator",
          "type": "address"
        },
        {
          "indexed": false,
          "internalType": "bool",
          "name": "approved",
          "type": "bool"
        }
      ],
      "name": "ApprovalForAll",
      "type": "event"
    },
    {
      "anonymous": false,
      "inputs": [
        {
          "indexed": true,
          "internalType": "address",
          "name": "previousOwner",
          "type": "address"
        },
        {
          "indexed": true,
          "internalType": "address",
          "name": "newOwner",
          "type": "address"
        }
      ],
      "name": "OwnershipTransferred",
      "type": "event"
    },
    {
      "anonymous": false,
      "inputs": [
        {
          "indexed": true,
          "internalType": "address",
          "name": "from",
          "type": "address"
        },
        {
          "indexed": true,
          "internalType": "address",
          "name": "to",
          "type": "address"
        },
        {
          "indexed": true,
          "internalType": "uint256",
          "name": "tokenId",
          "type": "uint256"
        }
      ],
      "name": "Transfer",
      "type": "event"
    },
    {
      "inputs": [
        {
          "internalType": "address",
          "name": "to",
          "type": "address"
        },
        {
          "internalType": "uint256",
          "name": "tokenId",
          "type": "uint256"
        }
      ],
      "name": "approve",
      "outputs": [],
      "stateMutability": "nonpayable",
      "type": "function"
    },
    {
      "inputs": [
        {
          "internalType": "address",
          "name": "owner",
          "type": "address"
        }
      ],
      "name": "balanceOf",
      "outputs": [
        {
          "internalType": "uint256",
          "name": "",
          "type": "uint256"
        }
      ],
      "stateMutability": "view",
      "type": "function"
    },
    {
      "inputs": [],
      "name": "baseTokenURI",
      "outputs": [
        {
          "internalType": "string",
          "name": "",
          "type": "string"
        }
      ],
      "stateMutability": "view",
      "type": "function"
    },
    {
      "inputs": [
        {
          "internalType": "uint256",
          "name": "tokenId",
          "type": "uint256"
        }
      ],
      "name": "getApproved",
      "outputs": [
        {
          "internalType": "address",
          "name": "",
          "type": "address"
        }
      ],
      "stateMutability": "view",
      "type": "function"
    },
    {
      "inputs": [
        {
          "internalType": "address",
          "name": "owner",
          "type": "address"
        },
        {
          "internalType": "address",
          "name": "operator",
          "type": "address"
        }
      ],
      "name": "isApprovedForAll",
      "outputs": [
        {
          "internalType": "bool",
          "name": "",
          "type": "bool"
        }
      ],
      "stateMutability": "view",
      "type": "function"
    },
    {
      "inputs": [
        {
          "internalType": "address",
          "name": "recipient",
          "type": "address"
        },
        {
          "internalType": "string",
          "name": "tokenURI",
          "type": "string"
        }
      ],
      "name": "mintNFT",
      "outputs": [
        {
          "internalType": "uint256",
          "name": "",
          "type": "uint256"
        }
      ],
      "stateMutability": "nonpayable",
      "type": "function"
    },
    {
      "inputs": [
        {
          "internalType": "address",
          "name": "recipient",
          "type": "address"
        }
      ],
      "name": "mintTo",
      "outputs": [
        {
          "internalType": "uint256",
          "name": "",
          "type": "uint256"
        }
      ],
      "stateMutability": "nonpayable",
      "type": "function"
    },
    {
      "inputs": [],
      "name": "name",
      "outputs": [
        {
          "internalType": "string",
          "name": "",
          "type": "string"
        }
      ],
      "stateMutability": "view",
      "type": "function"
    },
    {
      "inputs": [],
      "name": "owner",
      "outputs": [
        {
          "internalType": "address",
          "name": "",
          "type": "address"
        }
      ],
      "stateMutability": "view",
      "type": "function"
    },
    {
      "inputs": [
        {
          "internalType": "uint256",
          "name": "tokenId",
          "type": "uint256"
        }
      ],
      "name": "ownerOf",
      "outputs": [
        {
          "internalType": "address",
          "name": "",
          "type": "address"
        }
      ],
      "stateMutability": "view",
      "type": "function"
    },
    {
      "inputs": [],
      "name": "renounceOwnership",
      "outputs": [],
      "stateMutability": "nonpayable",
      "type": "function"
    },
    {
      "inputs": [
        {
          "internalType": "address",
          "name": "from",
          "type": "address"
        },
        {
          "internalType": "address",
          "name": "to",
          "type": "address"
        },
        {
          "internalType": "uint256",
          "name": "tokenId",
          "type": "uint256"
        }
      ],
      "name": "safeTransferFrom",
      "outputs": [],
      "stateMutability": "nonpayable",
      "type": "function"
    },
    {
      "inputs": [
        {
          "internalType": "address",
          "name": "from",
          "type": "address"
        },
        {
          "internalType": "address",
          "name": "to",
          "type": "address"
        },
        {
          "internalType": "uint256",
          "name": "tokenId",
          "type": "uint256"
        },
        {
          "internalType": "bytes",
          "name": "data",
          "type": "bytes"
        }
      ],
      "name": "safeTransferFrom",
      "outputs": [],
      "stateMutability": "nonpayable",
      "type": "function"
    },
    {
      "inputs": [
        {
          "internalType": "address",
          "name": "operator",
          "type": "address"
        },
        {
          "internalType": "bool",
          "name": "approved",
          "type": "bool"
        }
      ],
      "name": "setApprovalForAll",
      "outputs": [],
      "stateMutability": "nonpayable",
      "type": "function"
    },
    {
      "inputs": [
        {
          "internalType": "string",
          "name": "_baseTokenURI",
          "type": "string"
        }
      ],
      "name": "setBaseTokenURI",
      "outputs": [],
      "stateMutability": "nonpayable",
      "type": "function"
    },
    {
      "inputs": [
        {
          "internalType": "bytes4",
          "name": "interfaceId",
          "type": "bytes4"
        }
      ],
      "name": "supportsInterface",
      "outputs": [
        {
          "internalType": "bool",
          "name": "",
          "type": "bool"
        }
      ],
      "stateMutability": "view",
      "type": "function"
    },
    {
      "inputs": [],
      "name": "symbol",
      "outputs": [
        {
          "internalType": "string",
          "name": "",
          "type": "string"
        }
      ],
      "stateMutability": "view",
      "type": "function"
    },
    {
      "inputs": [
        {
          "internalType": "uint256",
          "name": "tokenId",
          "type": "uint256"
        }
      ],
      "name": "tokenURI",
      "outputs": [
        {
          "internalType": "string",
          "name": "",
          "type": "string"
        }
      ],
      "stateMutability": "view",
      "type": "function"
    },
    {
      "inputs": [
        {
          "internalType": "address",
          "name": "from",
          "type": "address"
        },
        {
          "internalType": "address",
          "name": "to",
          "type": "address"
        },
        {
          "internalType": "uint256",
          "name": "tokenId",
          "type": "uint256"
        }
      ],
      "name": "transferFrom",
      "outputs": [],
      "stateMutability": "nonpayable",
      "type": "function"
    },
    {
      "inputs": [
        {
          "internalType": "address",
          "name": "newOwner",
          "type": "address"
        }
      ],
      "name": "transferOwnership",
      "outputs": [],
      "stateMutability": "nonpayable",
      "type": "function"
    }
  ],
  "transactionHash": "0xfcb1d42dd15906517d6b162503b449fc037c3aabd667715fadaebfed98c9296b",
  "args": [],
  "numDeployments": 1,
  "solcInputHash": "7a53fc989aefcc8b133b61228ccea756",
  "bytecode": "0x60806040523480156200001157600080fd5b506040518060400160405280600a81526020017f4e4654466163746f7279000000000000000000000000000000000000000000008152506040518060400160405280600481526020017f4e46544600000000000000000000000000000000000000000000000000000000815250816000908051906020019062000096929190620001f4565b508060019080519060200190620000af929190620001f4565b505050620000d2620000c66200012660201b60201c565b6200012e60201b60201c565b6040518060400160405280600781526020017f697066733a2f2f00000000000000000000000000000000000000000000000000815250600990805190602001906200011f929190620001f4565b5062000309565b600033905090565b6000600760009054906101000a900473ffffffffffffffffffffffffffffffffffffffff16905081600760006101000a81548173ffffffffffffffffffffffffffffffffffffffff021916908373ffffffffffffffffffffffffffffffffffffffff1602179055508173ffffffffffffffffffffffffffffffffffffffff168173ffffffffffffffffffffffffffffffffffffffff167f8be0079c531659141344cd1fd0a4f28419497f9722a3daafe3b4186f6b6457e060405160405180910390a35050565b8280546200020290620002d3565b90600052602060002090601f01602090048101928262000226576000855562000272565b82601f106200024157805160ff191683800117855562000272565b8280016001018555821562000272579182015b828111156200027157825182559160200191906001019062000254565b5b50905062000281919062000285565b5090565b5b80821115620002a057600081600090555060010162000286565b5090565b7f4e487b7100000000000000000000000000000000000000000000000000000000600052602260045260246000fd5b60006002820490506001821680620002ec57607f821691505b60208210811415620003035762000302620002a4565b5b50919050565b612fcc80620003196000396000f3fe608060405234801561001057600080fd5b506004361061012c5760003560e01c8063755edd17116100ad578063c87b56dd11610071578063c87b56dd1461032d578063d547cfb71461035d578063e985e9c51461037b578063eacabe14146103ab578063f2fde38b146103db5761012c565b8063755edd17146102895780638da5cb5b146102b957806395d89b41146102d7578063a22cb465146102f5578063b88d4fde146103115761012c565b806330176e13116100f457806330176e13146101e757806342842e0e146102035780636352211e1461021f57806370a082311461024f578063715018a61461027f5761012c565b806301ffc9a71461013157806306fdde0314610161578063081812fc1461017f578063095ea7b3146101af57806323b872dd146101cb575b600080fd5b61014b60048036038101906101469190611de9565b6103f7565b6040516101589190611e31565b60405180910390f35b6101696104d9565b6040516101769190611ee5565b60405180910390f35b61019960048036038101906101949190611f3d565b61056b565b6040516101a69190611fab565b60405180910390f35b6101c960048036038101906101c49190611ff2565b6105b1565b005b6101e560048036038101906101e09190612032565b6106c9565b005b61020160048036038101906101fc91906121ba565b610729565b005b61021d60048036038101906102189190612032565b61074b565b005b61023960048036038101906102349190611f3d565b61076b565b6040516102469190611fab565b60405180910390f35b61026960048036038101906102649190612203565b61081d565b604051610276919061223f565b60405180910390f35b6102876108d5565b005b6102a3600480360381019061029e9190612203565b6108e9565b6040516102b0919061223f565b60405180910390f35b6102c161096b565b6040516102ce9190611fab565b60405180910390f35b6102df610995565b6040516102ec9190611ee5565b60405180910390f35b61030f600480360381019061030a9190612286565b610a27565b005b61032b60048036038101906103269190612367565b610a3d565b005b61034760048036038101906103429190611f3d565b610a9f565b6040516103549190611ee5565b60405180910390f35b610365610bb2565b6040516103729190611ee5565b60405180910390f35b610395600480360381019061039091906123ea565b610c40565b6040516103a29190611e31565b60405180910390f35b6103c560048036038101906103c0919061242a565b610cd4565b6040516103d2919061223f565b60405180910390f35b6103f560048036038101906103f09190612203565b610d61565b005b60007f80ac58cd000000000000000000000000000000000000000000000000000000007bffffffffffffffffffffffffffffffffffffffffffffffffffffffff1916827bffffffffffffffffffffffffffffffffffffffffffffffffffffffff191614806104c257507f5b5e139f000000000000000000000000000000000000000000000000000000007bffffffffffffffffffffffffffffffffffffffffffffffffffffffff1916827bffffffffffffffffffffffffffffffffffffffffffffffffffffffff1916145b806104d257506104d182610de5565b5b9050919050565b6060600080546104e8906124b5565b80601f0160208091040260200160405190810160405280929190818152602001828054610514906124b5565b80156105615780601f1061053657610100808354040283529160200191610561565b820191906000526020600020905b81548152906001019060200180831161054457829003601f168201915b5050505050905090565b600061057682610e4f565b6004600083815260200190815260200160002060009054906101000a900473ffffffffffffffffffffffffffffffffffffffff169050919050565b60006105bc8261076b565b90508073ffffffffffffffffffffffffffffffffffffffff168373ffffffffffffffffffffffffffffffffffffffff16141561062d576040517f08c379a000000000000000000000000000000000000000000000000000000000815260040161062490612559565b60405180910390fd5b8073ffffffffffffffffffffffffffffffffffffffff1661064c610e9a565b73ffffffffffffffffffffffffffffffffffffffff16148061067b575061067a81610675610e9a565b610c40565b5b6106ba576040517f08c379a00000000000000000000000000000000000000000000000000000000081526004016106b1906125eb565b60405180910390fd5b6106c48383610ea2565b505050565b6106da6106d4610e9a565b82610f5b565b610719576040517f08c379a00000000000000000000000000000000000000000000000000000000081526004016107109061267d565b60405180910390fd5b610724838383610ff0565b505050565b610731611257565b8060099080519060200190610747929190611cda565b5050565b61076683838360405180602001604052806000815250610a3d565b505050565b6000806002600084815260200190815260200160002060009054906101000a900473ffffffffffffffffffffffffffffffffffffffff169050600073ffffffffffffffffffffffffffffffffffffffff168173ffffffffffffffffffffffffffffffffffffffff161415610814576040517f08c379a000000000000000000000000000000000000000000000000000000000815260040161080b906126e9565b60405180910390fd5b80915050919050565b60008073ffffffffffffffffffffffffffffffffffffffff168273ffffffffffffffffffffffffffffffffffffffff16141561088e576040517f08c379a00000000000000000000000000000000000000000000000000000000081526004016108859061277b565b60405180910390fd5b600360008373ffffffffffffffffffffffffffffffffffffffff1673ffffffffffffffffffffffffffffffffffffffff168152602001908152602001600020549050919050565b6108dd611257565b6108e760006112d5565b565b60006108f3611257565b610bb8610900600861139b565b10610940576040517f08c379a0000000000000000000000000000000000000000000000000000000008152600401610937906127e7565b60405180910390fd5b61094a60086113a9565b6000610956600861139b565b905061096283826113bf565b80915050919050565b6000600760009054906101000a900473ffffffffffffffffffffffffffffffffffffffff16905090565b6060600180546109a4906124b5565b80601f01602080910402602001604051908101604052809291908181526020018280546109d0906124b5565b8015610a1d5780601f106109f257610100808354040283529160200191610a1d565b820191906000526020600020905b815481529060010190602001808311610a0057829003601f168201915b5050505050905090565b610a39610a32610e9a565b83836113dd565b5050565b610a4e610a48610e9a565b83610f5b565b610a8d576040517f08c379a0000000000000000000000000000000000000000000000000000000008152600401610a849061267d565b60405180910390fd5b610a998484848461154a565b50505050565b6060610aaa82610e4f565b6000600660008481526020019081526020016000208054610aca906124b5565b80601f0160208091040260200160405190810160405280929190818152602001828054610af6906124b5565b8015610b435780601f10610b1857610100808354040283529160200191610b43565b820191906000526020600020905b815481529060010190602001808311610b2657829003601f168201915b505050505090506000610b546115a6565b9050600081511415610b6a578192505050610bad565b600082511115610b9f578082604051602001610b87929190612843565b60405160208183030381529060405292505050610bad565b610ba884611638565b925050505b919050565b60098054610bbf906124b5565b80601f0160208091040260200160405190810160405280929190818152602001828054610beb906124b5565b8015610c385780601f10610c0d57610100808354040283529160200191610c38565b820191906000526020600020905b815481529060010190602001808311610c1b57829003601f168201915b505050505081565b6000600560008473ffffffffffffffffffffffffffffffffffffffff1673ffffffffffffffffffffffffffffffffffffffff16815260200190815260200160002060008373ffffffffffffffffffffffffffffffffffffffff1673ffffffffffffffffffffffffffffffffffffffff16815260200190815260200160002060009054906101000a900460ff16905092915050565b6000610cde611257565b610bb8610ceb600861139b565b10610d2b576040517f08c379a0000000000000000000000000000000000000000000000000000000008152600401610d22906127e7565b60405180910390fd5b610d3560086113a9565b6000610d41600861139b565b9050610d4d84826116a0565b610d57818461187a565b8091505092915050565b610d69611257565b600073ffffffffffffffffffffffffffffffffffffffff168173ffffffffffffffffffffffffffffffffffffffff161415610dd9576040517f08c379a0000000000000000000000000000000000000000000000000000000008152600401610dd0906128d9565b60405180910390fd5b610de2816112d5565b50565b60007f01ffc9a7000000000000000000000000000000000000000000000000000000007bffffffffffffffffffffffffffffffffffffffffffffffffffffffff1916827bffffffffffffffffffffffffffffffffffffffffffffffffffffffff1916149050919050565b610e58816118ee565b610e97576040517f08c379a0000000000000000000000000000000000000000000000000000000008152600401610e8e906126e9565b60405180910390fd5b50565b600033905090565b816004600083815260200190815260200160002060006101000a81548173ffffffffffffffffffffffffffffffffffffffff021916908373ffffffffffffffffffffffffffffffffffffffff160217905550808273ffffffffffffffffffffffffffffffffffffffff16610f158361076b565b73ffffffffffffffffffffffffffffffffffffffff167f8c5be1e5ebec7d5bd14f71427d1e84f3dd0314c0f7b2291e5b200ac8c7c3b92560405160405180910390a45050565b600080610f678361076b565b90508073ffffffffffffffffffffffffffffffffffffffff168473ffffffffffffffffffffffffffffffffffffffff161480610fa95750610fa88185610c40565b5b80610fe757508373ffffffffffffffffffffffffffffffffffffffff16610fcf8461056b565b73ffffffffffffffffffffffffffffffffffffffff16145b91505092915050565b8273ffffffffffffffffffffffffffffffffffffffff166110108261076b565b73ffffffffffffffffffffffffffffffffffffffff1614611066576040517f08c379a000000000000000000000000000000000000000000000000000000000815260040161105d9061296b565b60405180910390fd5b600073ffffffffffffffffffffffffffffffffffffffff168273ffffffffffffffffffffffffffffffffffffffff1614156110d6576040517f08c379a00000000000000000000000000000000000000000000000000000000081526004016110cd906129fd565b60405180910390fd5b6110e183838361195a565b6110ec600082610ea2565b6001600360008573ffffffffffffffffffffffffffffffffffffffff1673ffffffffffffffffffffffffffffffffffffffff168152602001908152602001600020600082825461113c9190612a4c565b925050819055506001600360008473ffffffffffffffffffffffffffffffffffffffff1673ffffffffffffffffffffffffffffffffffffffff16815260200190815260200160002060008282546111939190612a80565b92505081905550816002600083815260200190815260200160002060006101000a81548173ffffffffffffffffffffffffffffffffffffffff021916908373ffffffffffffffffffffffffffffffffffffffff160217905550808273ffffffffffffffffffffffffffffffffffffffff168473ffffffffffffffffffffffffffffffffffffffff167fddf252ad1be2c89b69c2b068fc378daa952ba7f163c4a11628f55a4df523b3ef60405160405180910390a461125283838361195f565b505050565b61125f610e9a565b73ffffffffffffffffffffffffffffffffffffffff1661127d61096b565b73ffffffffffffffffffffffffffffffffffffffff16146112d3576040517f08c379a00000000000000000000000000000000000000000000000000000000081526004016112ca90612b22565b60405180910390fd5b565b6000600760009054906101000a900473ffffffffffffffffffffffffffffffffffffffff16905081600760006101000a81548173ffffffffffffffffffffffffffffffffffffffff021916908373ffffffffffffffffffffffffffffffffffffffff1602179055508173ffffffffffffffffffffffffffffffffffffffff168173ffffffffffffffffffffffffffffffffffffffff167f8be0079c531659141344cd1fd0a4f28419497f9722a3daafe3b4186f6b6457e060405160405180910390a35050565b600081600001549050919050565b6001816000016000828254019250508190555050565b6113d9828260405180602001604052806000815250611964565b5050565b8173ffffffffffffffffffffffffffffffffffffffff168373ffffffffffffffffffffffffffffffffffffffff16141561144c576040517f08c379a000000000000000000000000000000000000000000000000000000000815260040161144390612b8e565b60405180910390fd5b80600560008573ffffffffffffffffffffffffffffffffffffffff1673ffffffffffffffffffffffffffffffffffffffff16815260200190815260200160002060008473ffffffffffffffffffffffffffffffffffffffff1673ffffffffffffffffffffffffffffffffffffffff16815260200190815260200160002060006101000a81548160ff0219169083151502179055508173ffffffffffffffffffffffffffffffffffffffff168373ffffffffffffffffffffffffffffffffffffffff167f17307eab39ab6107e8899845ad3d59bd9653f200f220920489ca2b5937696c318360405161153d9190611e31565b60405180910390a3505050565b611555848484610ff0565b611561848484846119bf565b6115a0576040517f08c379a000000000000000000000000000000000000000000000000000000000815260040161159790612c20565b60405180910390fd5b50505050565b6060600980546115b5906124b5565b80601f01602080910402602001604051908101604052809291908181526020018280546115e1906124b5565b801561162e5780601f106116035761010080835404028352916020019161162e565b820191906000526020600020905b81548152906001019060200180831161161157829003601f168201915b5050505050905090565b606061164382610e4f565b600061164d6115a6565b9050600081511161166d5760405180602001604052806000815250611698565b8061167784611b56565b604051602001611688929190612843565b6040516020818303038152906040525b915050919050565b600073ffffffffffffffffffffffffffffffffffffffff168273ffffffffffffffffffffffffffffffffffffffff161415611710576040517f08c379a000000000000000000000000000000000000000000000000000000000815260040161170790612c8c565b60405180910390fd5b611719816118ee565b15611759576040517f08c379a000000000000000000000000000000000000000000000000000000000815260040161175090612cf8565b60405180910390fd5b6117656000838361195a565b6001600360008473ffffffffffffffffffffffffffffffffffffffff1673ffffffffffffffffffffffffffffffffffffffff16815260200190815260200160002060008282546117b59190612a80565b92505081905550816002600083815260200190815260200160002060006101000a81548173ffffffffffffffffffffffffffffffffffffffff021916908373ffffffffffffffffffffffffffffffffffffffff160217905550808273ffffffffffffffffffffffffffffffffffffffff16600073ffffffffffffffffffffffffffffffffffffffff167fddf252ad1be2c89b69c2b068fc378daa952ba7f163c4a11628f55a4df523b3ef60405160405180910390a46118766000838361195f565b5050565b611883826118ee565b6118c2576040517f08c379a00000000000000000000000000000000000000000000000000000000081526004016118b990612d8a565b60405180910390fd5b806006600084815260200190815260200160002090805190602001906118e9929190611cda565b505050565b60008073ffffffffffffffffffffffffffffffffffffffff166002600084815260200190815260200160002060009054906101000a900473ffffffffffffffffffffffffffffffffffffffff1673ffffffffffffffffffffffffffffffffffffffff1614159050919050565b505050565b505050565b61196e83836116a0565b61197b60008484846119bf565b6119ba576040517f08c379a00000000000000000000000000000000000000000000000000000000081526004016119b190612c20565b60405180910390fd5b505050565b60006119e08473ffffffffffffffffffffffffffffffffffffffff16611cb7565b15611b49578373ffffffffffffffffffffffffffffffffffffffff1663150b7a02611a09610e9a565b8786866040518563ffffffff1660e01b8152600401611a2b9493929190612dff565b602060405180830381600087803b158015611a4557600080fd5b505af1925050508015611a7657506040513d601f19601f82011682018060405250810190611a739190612e60565b60015b611af9573d8060008114611aa6576040519150601f19603f3d011682016040523d82523d6000602084013e611aab565b606091505b50600081511415611af1576040517f08c379a0000000000000000000000000000000000000000000000000000000008152600401611ae890612c20565b60405180910390fd5b805181602001fd5b63150b7a0260e01b7bffffffffffffffffffffffffffffffffffffffffffffffffffffffff1916817bffffffffffffffffffffffffffffffffffffffffffffffffffffffff191614915050611b4e565b600190505b949350505050565b60606000821415611b9e576040518060400160405280600181526020017f30000000000000000000000000000000000000000000000000000000000000008152509050611cb2565b600082905060005b60008214611bd0578080611bb990612e8d565b915050600a82611bc99190612f05565b9150611ba6565b60008167ffffffffffffffff811115611bec57611beb61208f565b5b6040519080825280601f01601f191660200182016040528015611c1e5781602001600182028036833780820191505090505b5090505b60008514611cab57600182611c379190612a4c565b9150600a85611c469190612f36565b6030611c529190612a80565b60f81b818381518110611c6857611c67612f67565b5b60200101907effffffffffffffffffffffffffffffffffffffffffffffffffffffffffffff1916908160001a905350600a85611ca49190612f05565b9450611c22565b8093505050505b919050565b6000808273ffffffffffffffffffffffffffffffffffffffff163b119050919050565b828054611ce6906124b5565b90600052602060002090601f016020900481019282611d085760008555611d4f565b82601f10611d2157805160ff1916838001178555611d4f565b82800160010185558215611d4f579182015b82811115611d4e578251825591602001919060010190611d33565b5b509050611d5c9190611d60565b5090565b5b80821115611d79576000816000905550600101611d61565b5090565b6000604051905090565b600080fd5b600080fd5b60007fffffffff0000000000000000000000000000000000000000000000000000000082169050919050565b611dc681611d91565b8114611dd157600080fd5b50565b600081359050611de381611dbd565b92915050565b600060208284031215611dff57611dfe611d87565b5b6000611e0d84828501611dd4565b91505092915050565b60008115159050919050565b611e2b81611e16565b82525050565b6000602082019050611e466000830184611e22565b92915050565b600081519050919050565b600082825260208201905092915050565b60005b83811015611e86578082015181840152602081019050611e6b565b83811115611e95576000848401525b50505050565b6000601f19601f8301169050919050565b6000611eb782611e4c565b611ec18185611e57565b9350611ed1818560208601611e68565b611eda81611e9b565b840191505092915050565b60006020820190508181036000830152611eff8184611eac565b905092915050565b6000819050919050565b611f1a81611f07565b8114611f2557600080fd5b50565b600081359050611f3781611f11565b92915050565b600060208284031215611f5357611f52611d87565b5b6000611f6184828501611f28565b91505092915050565b600073ffffffffffffffffffffffffffffffffffffffff82169050919050565b6000611f9582611f6a565b9050919050565b611fa581611f8a565b82525050565b6000602082019050611fc06000830184611f9c565b92915050565b611fcf81611f8a565b8114611fda57600080fd5b50565b600081359050611fec81611fc6565b92915050565b6000806040838503121561200957612008611d87565b5b600061201785828601611fdd565b925050602061202885828601611f28565b9150509250929050565b60008060006060848603121561204b5761204a611d87565b5b600061205986828701611fdd565b935050602061206a86828701611fdd565b925050604061207b86828701611f28565b9150509250925092565b600080fd5b600080fd5b7f4e487b7100000000000000000000000000000000000000000000000000000000600052604160045260246000fd5b6120c782611e9b565b810181811067ffffffffffffffff821117156120e6576120e561208f565b5b80604052505050565b60006120f9611d7d565b905061210582826120be565b919050565b600067ffffffffffffffff8211156121255761212461208f565b5b61212e82611e9b565b9050602081019050919050565b82818337600083830152505050565b600061215d6121588461210a565b6120ef565b9050828152602081018484840111156121795761217861208a565b5b61218484828561213b565b509392505050565b600082601f8301126121a1576121a0612085565b5b81356121b184826020860161214a565b91505092915050565b6000602082840312156121d0576121cf611d87565b5b600082013567ffffffffffffffff8111156121ee576121ed611d8c565b5b6121fa8482850161218c565b91505092915050565b60006020828403121561221957612218611d87565b5b600061222784828501611fdd565b91505092915050565b61223981611f07565b82525050565b60006020820190506122546000830184612230565b92915050565b61226381611e16565b811461226e57600080fd5b50565b6000813590506122808161225a565b92915050565b6000806040838503121561229d5761229c611d87565b5b60006122ab85828601611fdd565b92505060206122bc85828601612271565b9150509250929050565b600067ffffffffffffffff8211156122e1576122e061208f565b5b6122ea82611e9b565b9050602081019050919050565b600061230a612305846122c6565b6120ef565b9050828152602081018484840111156123265761232561208a565b5b61233184828561213b565b509392505050565b600082601f83011261234e5761234d612085565b5b813561235e8482602086016122f7565b91505092915050565b6000806000806080858703121561238157612380611d87565b5b600061238f87828801611fdd565b94505060206123a087828801611fdd565b93505060406123b187828801611f28565b925050606085013567ffffffffffffffff8111156123d2576123d1611d8c565b5b6123de87828801612339565b91505092959194509250565b6000806040838503121561240157612400611d87565b5b600061240f85828601611fdd565b925050602061242085828601611fdd565b9150509250929050565b6000806040838503121561244157612440611d87565b5b600061244f85828601611fdd565b925050602083013567ffffffffffffffff8111156124705761246f611d8c565b5b61247c8582860161218c565b9150509250929050565b7f4e487b7100000000000000000000000000000000000000000000000000000000600052602260045260246000fd5b600060028204905060018216806124cd57607f821691505b602082108114156124e1576124e0612486565b5b50919050565b7f4552433732313a20617070726f76616c20746f2063757272656e74206f776e6560008201527f7200000000000000000000000000000000000000000000000000000000000000602082015250565b6000612543602183611e57565b915061254e826124e7565b604082019050919050565b6000602082019050818103600083015261257281612536565b9050919050565b7f4552433732313a20617070726f76652063616c6c6572206973206e6f7420746f60008201527f6b656e206f776e6572206e6f7220617070726f76656420666f7220616c6c0000602082015250565b60006125d5603e83611e57565b91506125e082612579565b604082019050919050565b60006020820190508181036000830152612604816125c8565b9050919050565b7f4552433732313a2063616c6c6572206973206e6f7420746f6b656e206f776e6560008201527f72206e6f7220617070726f766564000000000000000000000000000000000000602082015250565b6000612667602e83611e57565b91506126728261260b565b604082019050919050565b600060208201905081810360008301526126968161265a565b9050919050565b7f4552433732313a20696e76616c696420746f6b656e2049440000000000000000600082015250565b60006126d3601883611e57565b91506126de8261269d565b602082019050919050565b60006020820190508181036000830152612702816126c6565b9050919050565b7f4552433732313a2061646472657373207a65726f206973206e6f74206120766160008201527f6c6964206f776e65720000000000000000000000000000000000000000000000602082015250565b6000612765602983611e57565b915061277082612709565b604082019050919050565b6000602082019050818103600083015261279481612758565b9050919050565b7f4552433732313a20746f74616c20737570706c79207265616368656400000000600082015250565b60006127d1601c83611e57565b91506127dc8261279b565b602082019050919050565b60006020820190508181036000830152612800816127c4565b9050919050565b600081905092915050565b600061281d82611e4c565b6128278185612807565b9350612837818560208601611e68565b80840191505092915050565b600061284f8285612812565b915061285b8284612812565b91508190509392505050565b7f4f776e61626c653a206e6577206f776e657220697320746865207a65726f206160008201527f6464726573730000000000000000000000000000000000000000000000000000602082015250565b60006128c3602683611e57565b91506128ce82612867565b604082019050919050565b600060208201905081810360008301526128f2816128b6565b9050919050565b7f4552433732313a207472616e736665722066726f6d20696e636f72726563742060008201527f6f776e6572000000000000000000000000000000000000000000000000000000602082015250565b6000612955602583611e57565b9150612960826128f9565b604082019050919050565b6000602082019050818103600083015261298481612948565b9050919050565b7f4552433732313a207472616e7366657220746f20746865207a65726f2061646460008201527f7265737300000000000000000000000000000000000000000000000000000000602082015250565b60006129e7602483611e57565b91506129f28261298b565b604082019050919050565b60006020820190508181036000830152612a16816129da565b9050919050565b7f4e487b7100000000000000000000000000000000000000000000000000000000600052601160045260246000fd5b6000612a5782611f07565b9150612a6283611f07565b925082821015612a7557612a74612a1d565b5b828203905092915050565b6000612a8b82611f07565b9150612a9683611f07565b9250827fffffffffffffffffffffffffffffffffffffffffffffffffffffffffffffffff03821115612acb57612aca612a1d565b5b828201905092915050565b7f4f776e61626c653a2063616c6c6572206973206e6f7420746865206f776e6572600082015250565b6000612b0c602083611e57565b9150612b1782612ad6565b602082019050919050565b60006020820190508181036000830152612b3b81612aff565b9050919050565b7f4552433732313a20617070726f766520746f2063616c6c657200000000000000600082015250565b6000612b78601983611e57565b9150612b8382612b42565b602082019050919050565b60006020820190508181036000830152612ba781612b6b565b9050919050565b7f4552433732313a207472616e7366657220746f206e6f6e20455243373231526560008201527f63656976657220696d706c656d656e7465720000000000000000000000000000602082015250565b6000612c0a603283611e57565b9150612c1582612bae565b604082019050919050565b60006020820190508181036000830152612c3981612bfd565b9050919050565b7f4552433732313a206d696e7420746f20746865207a65726f2061646472657373600082015250565b6000612c76602083611e57565b9150612c8182612c40565b602082019050919050565b60006020820190508181036000830152612ca581612c69565b9050919050565b7f4552433732313a20746f6b656e20616c7265616479206d696e74656400000000600082015250565b6000612ce2601c83611e57565b9150612ced82612cac565b602082019050919050565b60006020820190508181036000830152612d1181612cd5565b9050919050565b7f45524337323155524953746f726167653a2055524920736574206f66206e6f6e60008201527f6578697374656e7420746f6b656e000000000000000000000000000000000000602082015250565b6000612d74602e83611e57565b9150612d7f82612d18565b604082019050919050565b60006020820190508181036000830152612da381612d67565b9050919050565b600081519050919050565b600082825260208201905092915050565b6000612dd182612daa565b612ddb8185612db5565b9350612deb818560208601611e68565b612df481611e9b565b840191505092915050565b6000608082019050612e146000830187611f9c565b612e216020830186611f9c565b612e2e6040830185612230565b8181036060830152612e408184612dc6565b905095945050505050565b600081519050612e5a81611dbd565b92915050565b600060208284031215612e7657612e75611d87565b5b6000612e8484828501612e4b565b91505092915050565b6000612e9882611f07565b91507fffffffffffffffffffffffffffffffffffffffffffffffffffffffffffffffff821415612ecb57612eca612a1d565b5b600182019050919050565b7f4e487b7100000000000000000000000000000000000000000000000000000000600052601260045260246000fd5b6000612f1082611f07565b9150612f1b83611f07565b925082612f2b57612f2a612ed6565b5b828204905092915050565b6000612f4182611f07565b9150612f4c83611f07565b925082612f5c57612f5b612ed6565b5b828206905092915050565b7f4e487b7100000000000000000000000000000000000000000000000000000000600052603260045260246000fdfea2646970667358221220b177d6690028c50591f5aabf96406487c38771b7d0859fb9485a98c3b999b55364736f6c63430008090033",
  "devdoc": {
    "kind": "dev",
    "methods": {
      "approve(address,uint256)": {
        "details": "See {IERC721-approve}."
      },
      "balanceOf(address)": {
        "details": "See {IERC721-balanceOf}."
      },
      "getApproved(uint256)": {
        "details": "See {IERC721-getApproved}."
      },
      "isApprovedForAll(address,address)": {
        "details": "See {IERC721-isApprovedForAll}."
      },
      "name()": {
        "details": "See {IERC721Metadata-name}."
      },
      "owner()": {
        "details": "Returns the address of the current owner."
      },
      "ownerOf(uint256)": {
        "details": "See {IERC721-ownerOf}."
      },
      "renounceOwnership()": {
        "details": "Leaves the contract without owner. It will not be possible to call `onlyOwner` functions anymore. Can only be called by the current owner. NOTE: Renouncing ownership will leave the contract without an owner, thereby removing any functionality that is only available to the owner."
      },
      "safeTransferFrom(address,address,uint256)": {
        "details": "See {IERC721-safeTransferFrom}."
      },
      "safeTransferFrom(address,address,uint256,bytes)": {
        "details": "See {IERC721-safeTransferFrom}."
      },
      "setApprovalForAll(address,bool)": {
        "details": "See {IERC721-setApprovalForAll}."
      },
      "setBaseTokenURI(string)": {
        "details": "Sets the base token URI prefix."
      },
      "supportsInterface(bytes4)": {
        "details": "See {IERC165-supportsInterface}."
      },
      "symbol()": {
        "details": "See {IERC721Metadata-symbol}."
      },
      "tokenURI(uint256)": {
        "details": "See {IERC721Metadata-tokenURI}."
      },
      "transferFrom(address,address,uint256)": {
        "details": "See {IERC721-transferFrom}."
      },
      "transferOwnership(address)": {
        "details": "Transfers ownership of the contract to a new account (`newOwner`). Can only be called by the current owner."
      }
    },
    "stateVariables": {
      "baseTokenURI": {
        "details": "Base token URI used as a prefix by tokenURI()."
      }
    },
    "version": 1
  },
  "userdoc": {
    "kind": "user",
    "methods": {},
    "version": 1
  },
  "storageLayout": {
    "storage": [
      {
        "astId": 138,
        "contract": "contracts/NFTFactory.sol:NFTFactory",
        "label": "_name",
        "offset": 0,
        "slot": "0",
        "type": "t_string_storage"
      },
      {
        "astId": 140,
        "contract": "contracts/NFTFactory.sol:NFTFactory",
        "label": "_symbol",
        "offset": 0,
        "slot": "1",
        "type": "t_string_storage"
      },
      {
        "astId": 144,
        "contract": "contracts/NFTFactory.sol:NFTFactory",
        "label": "_owners",
        "offset": 0,
        "slot": "2",
        "type": "t_mapping(t_uint256,t_address)"
      },
      {
        "astId": 148,
        "contract": "contracts/NFTFactory.sol:NFTFactory",
        "label": "_balances",
        "offset": 0,
        "slot": "3",
        "type": "t_mapping(t_address,t_uint256)"
      },
      {
        "astId": 152,
        "contract": "contracts/NFTFactory.sol:NFTFactory",
        "label": "_tokenApprovals",
        "offset": 0,
        "slot": "4",
        "type": "t_mapping(t_uint256,t_address)"
      },
      {
        "astId": 158,
        "contract": "contracts/NFTFactory.sol:NFTFactory",
        "label": "_operatorApprovals",
        "offset": 0,
        "slot": "5",
        "type": "t_mapping(t_address,t_mapping(t_address,t_bool))"
      },
      {
        "astId": 1126,
        "contract": "contracts/NFTFactory.sol:NFTFactory",
        "label": "_tokenURIs",
        "offset": 0,
        "slot": "6",
        "type": "t_mapping(t_uint256,t_string_storage)"
      },
      {
        "astId": 7,
        "contract": "contracts/NFTFactory.sol:NFTFactory",
        "label": "_owner",
        "offset": 0,
        "slot": "7",
        "type": "t_address"
      },
      {
        "astId": 1934,
        "contract": "contracts/NFTFactory.sol:NFTFactory",
        "label": "_tokenIds",
        "offset": 0,
        "slot": "8",
        "type": "t_struct(Counter)1588_storage"
      },
      {
        "astId": 1937,
        "contract": "contracts/NFTFactory.sol:NFTFactory",
        "label": "baseTokenURI",
        "offset": 0,
        "slot": "9",
        "type": "t_string_storage"
      }
    ],
    "types": {
      "t_address": {
        "encoding": "inplace",
        "label": "address",
        "numberOfBytes": "20"
      },
      "t_bool": {
        "encoding": "inplace",
        "label": "bool",
        "numberOfBytes": "1"
      },
      "t_mapping(t_address,t_bool)": {
        "encoding": "mapping",
        "key": "t_address",
        "label": "mapping(address => bool)",
        "numberOfBytes": "32",
        "value": "t_bool"
      },
      "t_mapping(t_address,t_mapping(t_address,t_bool))": {
        "encoding": "mapping",
        "key": "t_address",
        "label": "mapping(address => mapping(address => bool))",
        "numberOfBytes": "32",
        "value": "t_mapping(t_address,t_bool)"
      },
      "t_mapping(t_address,t_uint256)": {
        "encoding": "mapping",
        "key": "t_address",
        "label": "mapping(address => uint256)",
        "numberOfBytes": "32",
        "value": "t_uint256"
      },
      "t_mapping(t_uint256,t_address)": {
        "encoding": "mapping",
        "key": "t_uint256",
        "label": "mapping(uint256 => address)",
        "numberOfBytes": "32",
        "value": "t_address"
      },
      "t_mapping(t_uint256,t_string_storage)": {
        "encoding": "mapping",
        "key": "t_uint256",
        "label": "mapping(uint256 => string)",
        "numberOfBytes": "32",
        "value": "t_string_storage"
      },
      "t_string_storage": {
        "encoding": "bytes",
        "label": "string",
        "numberOfBytes": "32"
      },
      "t_struct(Counter)1588_storage": {
        "encoding": "inplace",
        "label": "struct Counters.Counter",
        "members": [
          {
            "astId": 1587,
            "contract": "contracts/NFTFactory.sol:NFTFactory",
            "label": "_value",
            "offset": 0,
            "slot": "0",
            "type": "t_uint256"
          }
        ],
        "numberOfBytes": "32"
      },
      "t_uint256": {
        "encoding": "inplace",
        "label": "uint256",
        "numberOfBytes": "32"
      }
    }
  }
}