{
  "address": "0x3184fde768C380CC96D41F49906093cb08CdBEd1",
  "abi": [
    {
      "inputs": [],
      "stateMutability": "nonpayable",
      "type": "constructor"
    },
    {
      "anonymous": false,
      "inputs": [
        {
          "indexed": true,
          "internalType": "address",
          "name": "owner",
          "type": "address"
        },
        {
          "indexed": true,
          "internalType": "address",
          "name": "approved",
          "type": "address"
        },
        {
          "indexed": true,
          "internalType": "uint256",
          "name": "tokenId",
          "type": "uint256"
        }
      ],
      "name": "Approval",
      "type": "event"
    },
    {
      "anonymous": false,
      "inputs": [
        {
          "indexed": true,
          "internalType": "address",
          "name": "owner",
          "type": "address"
        },
        {
          "indexed": true,
          "internalType": "address",
          "name": "operator",
          "type": "address"
        },
        {
          "indexed": false,
          "internalType": "bool",
          "name": "approved",
          "type": "bool"
        }
      ],
      "name": "ApprovalForAll",
      "type": "event"
    },
    {
      "anonymous": false,
      "inputs": [
        {
          "indexed": true,
          "internalType": "address",
          "name": "previousOwner",
          "type": "address"
        },
        {
          "indexed": true,
          "internalType": "address",
          "name": "newOwner",
          "type": "address"
        }
      ],
      "name": "OwnershipTransferred",
      "type": "event"
    },
    {
      "anonymous": false,
      "inputs": [
        {
          "indexed": true,
          "internalType": "address",
          "name": "from",
          "type": "address"
        },
        {
          "indexed": true,
          "internalType": "address",
          "name": "to",
          "type": "address"
        },
        {
          "indexed": true,
          "internalType": "uint256",
          "name": "tokenId",
          "type": "uint256"
        }
      ],
      "name": "Transfer",
      "type": "event"
    },
    {
      "inputs": [
        {
          "internalType": "address",
          "name": "to",
          "type": "address"
        },
        {
          "internalType": "uint256",
          "name": "tokenId",
          "type": "uint256"
        }
      ],
      "name": "approve",
      "outputs": [],
      "stateMutability": "nonpayable",
      "type": "function"
    },
    {
      "inputs": [
        {
          "internalType": "address",
          "name": "owner",
          "type": "address"
        }
      ],
      "name": "balanceOf",
      "outputs": [
        {
          "internalType": "uint256",
          "name": "",
          "type": "uint256"
        }
      ],
      "stateMutability": "view",
      "type": "function"
    },
    {
      "inputs": [],
      "name": "baseTokenURI",
      "outputs": [
        {
          "internalType": "string",
          "name": "",
          "type": "string"
        }
      ],
      "stateMutability": "view",
      "type": "function"
    },
    {
      "inputs": [
        {
          "internalType": "uint256",
          "name": "_id",
          "type": "uint256"
        },
        {
          "internalType": "string",
          "name": "tokenURI",
          "type": "string"
        }
      ],
      "name": "changeNFTURI",
      "outputs": [],
      "stateMutability": "nonpayable",
      "type": "function"
    },
    {
      "inputs": [
        {
          "internalType": "uint256",
          "name": "tokenId",
          "type": "uint256"
        }
      ],
      "name": "getApproved",
      "outputs": [
        {
          "internalType": "address",
          "name": "",
          "type": "address"
        }
      ],
      "stateMutability": "view",
      "type": "function"
    },
    {
      "inputs": [
        {
          "internalType": "address",
          "name": "owner",
          "type": "address"
        },
        {
          "internalType": "address",
          "name": "operator",
          "type": "address"
        }
      ],
      "name": "isApprovedForAll",
      "outputs": [
        {
          "internalType": "bool",
          "name": "",
          "type": "bool"
        }
      ],
      "stateMutability": "view",
      "type": "function"
    },
    {
      "inputs": [
        {
          "internalType": "address",
          "name": "recipient",
          "type": "address"
        },
        {
          "internalType": "string",
          "name": "tokenURI",
          "type": "string"
        }
      ],
      "name": "mintNFT",
      "outputs": [
        {
          "internalType": "uint256",
          "name": "",
          "type": "uint256"
        }
      ],
      "stateMutability": "nonpayable",
      "type": "function"
    },
    {
      "inputs": [
        {
          "internalType": "address",
          "name": "recipient",
          "type": "address"
        }
      ],
      "name": "mintTo",
      "outputs": [
        {
          "internalType": "uint256",
          "name": "",
          "type": "uint256"
        }
      ],
      "stateMutability": "nonpayable",
      "type": "function"
    },
    {
      "inputs": [],
      "name": "name",
      "outputs": [
        {
          "internalType": "string",
          "name": "",
          "type": "string"
        }
      ],
      "stateMutability": "view",
      "type": "function"
    },
    {
      "inputs": [],
      "name": "owner",
      "outputs": [
        {
          "internalType": "address",
          "name": "",
          "type": "address"
        }
      ],
      "stateMutability": "view",
      "type": "function"
    },
    {
      "inputs": [
        {
          "internalType": "uint256",
          "name": "tokenId",
          "type": "uint256"
        }
      ],
      "name": "ownerOf",
      "outputs": [
        {
          "internalType": "address",
          "name": "",
          "type": "address"
        }
      ],
      "stateMutability": "view",
      "type": "function"
    },
    {
      "inputs": [],
      "name": "renounceOwnership",
      "outputs": [],
      "stateMutability": "nonpayable",
      "type": "function"
    },
    {
      "inputs": [
        {
          "internalType": "address",
          "name": "from",
          "type": "address"
        },
        {
          "internalType": "address",
          "name": "to",
          "type": "address"
        },
        {
          "internalType": "uint256",
          "name": "tokenId",
          "type": "uint256"
        }
      ],
      "name": "safeTransferFrom",
      "outputs": [],
      "stateMutability": "nonpayable",
      "type": "function"
    },
    {
      "inputs": [
        {
          "internalType": "address",
          "name": "from",
          "type": "address"
        },
        {
          "internalType": "address",
          "name": "to",
          "type": "address"
        },
        {
          "internalType": "uint256",
          "name": "tokenId",
          "type": "uint256"
        },
        {
          "internalType": "bytes",
          "name": "data",
          "type": "bytes"
        }
      ],
      "name": "safeTransferFrom",
      "outputs": [],
      "stateMutability": "nonpayable",
      "type": "function"
    },
    {
      "inputs": [
        {
          "internalType": "address",
          "name": "operator",
          "type": "address"
        },
        {
          "internalType": "bool",
          "name": "approved",
          "type": "bool"
        }
      ],
      "name": "setApprovalForAll",
      "outputs": [],
      "stateMutability": "nonpayable",
      "type": "function"
    },
    {
      "inputs": [
        {
          "internalType": "string",
          "name": "_baseTokenURI",
          "type": "string"
        }
      ],
      "name": "setBaseTokenURI",
      "outputs": [],
      "stateMutability": "nonpayable",
      "type": "function"
    },
    {
      "inputs": [
        {
          "internalType": "bytes4",
          "name": "interfaceId",
          "type": "bytes4"
        }
      ],
      "name": "supportsInterface",
      "outputs": [
        {
          "internalType": "bool",
          "name": "",
          "type": "bool"
        }
      ],
      "stateMutability": "view",
      "type": "function"
    },
    {
      "inputs": [],
      "name": "symbol",
      "outputs": [
        {
          "internalType": "string",
          "name": "",
          "type": "string"
        }
      ],
      "stateMutability": "view",
      "type": "function"
    },
    {
      "inputs": [
        {
          "internalType": "uint256",
          "name": "tokenId",
          "type": "uint256"
        }
      ],
      "name": "tokenURI",
      "outputs": [
        {
          "internalType": "string",
          "name": "",
          "type": "string"
        }
      ],
      "stateMutability": "view",
      "type": "function"
    },
    {
      "inputs": [
        {
          "internalType": "address",
          "name": "from",
          "type": "address"
        },
        {
          "internalType": "address",
          "name": "to",
          "type": "address"
        },
        {
          "internalType": "uint256",
          "name": "tokenId",
          "type": "uint256"
        }
      ],
      "name": "transferFrom",
      "outputs": [],
      "stateMutability": "nonpayable",
      "type": "function"
    },
    {
      "inputs": [
        {
          "internalType": "address",
          "name": "newOwner",
          "type": "address"
        }
      ],
      "name": "transferOwnership",
      "outputs": [],
      "stateMutability": "nonpayable",
      "type": "function"
    }
  ],
  "transactionHash": "0xbb02495ee53c65b1ef9428fe43afbe2be8b09ece3c1084fdc8c4a80cfb95af0a",
  "args": [],
  "numDeployments": 2,
  "solcInputHash": "e0d0940c5ec50876dfff50b03b44bb27",
  "bytecode": "0x60806040523480156200001157600080fd5b506040518060400160405280600881526020017f594159204e4654730000000000000000000000000000000000000000000000008152506040518060400160405280600381526020017f5941590000000000000000000000000000000000000000000000000000000000815250816000908051906020019062000096929190620001ce565b508060019080519060200190620000af929190620001ce565b505050620000d2620000c66200010060201b60201c565b6200010860201b60201c565b6040518060200160405280600081525060099080519060200190620000f9929190620001ce565b50620002e3565b600033905090565b6000600760009054906101000a900473ffffffffffffffffffffffffffffffffffffffff16905081600760006101000a81548173ffffffffffffffffffffffffffffffffffffffff021916908373ffffffffffffffffffffffffffffffffffffffff1602179055508173ffffffffffffffffffffffffffffffffffffffff168173ffffffffffffffffffffffffffffffffffffffff167f8be0079c531659141344cd1fd0a4f28419497f9722a3daafe3b4186f6b6457e060405160405180910390a35050565b828054620001dc90620002ad565b90600052602060002090601f0160209004810192826200020057600085556200024c565b82601f106200021b57805160ff19168380011785556200024c565b828001600101855582156200024c579182015b828111156200024b5782518255916020019190600101906200022e565b5b5090506200025b91906200025f565b5090565b5b808211156200027a57600081600090555060010162000260565b5090565b7f4e487b7100000000000000000000000000000000000000000000000000000000600052602260045260246000fd5b60006002820490506001821680620002c657607f821691505b60208210811415620002dd57620002dc6200027e565b5b50919050565b61306580620002f36000396000f3fe608060405234801561001057600080fd5b50600436106101375760003560e01c8063715018a6116100b8578063b88d4fde1161007c578063b88d4fde14610338578063c87b56dd14610354578063d547cfb714610384578063e985e9c5146103a2578063eacabe14146103d2578063f2fde38b1461040257610137565b8063715018a6146102a6578063755edd17146102b05780638da5cb5b146102e057806395d89b41146102fe578063a22cb4651461031c57610137565b806323b872dd116100ff57806323b872dd146101f257806330176e131461020e57806342842e0e1461022a5780636352211e1461024657806370a082311461027657610137565b806301ffc9a71461013c5780630359a08d1461016c57806306fdde0314610188578063081812fc146101a6578063095ea7b3146101d6575b600080fd5b61015660048036038101906101519190611e26565b61041e565b6040516101639190611e6e565b60405180910390f35b61018660048036038101906101819190612005565b610500565b005b610190610516565b60405161019d91906120e9565b60405180910390f35b6101c060048036038101906101bb919061210b565b6105a8565b6040516101cd9190612179565b60405180910390f35b6101f060048036038101906101eb91906121c0565b6105ee565b005b61020c60048036038101906102079190612200565b610706565b005b61022860048036038101906102239190612253565b610766565b005b610244600480360381019061023f9190612200565b610788565b005b610260600480360381019061025b919061210b565b6107a8565b60405161026d9190612179565b60405180910390f35b610290600480360381019061028b919061229c565b61085a565b60405161029d91906122d8565b60405180910390f35b6102ae610912565b005b6102ca60048036038101906102c5919061229c565b610926565b6040516102d791906122d8565b60405180910390f35b6102e86109a8565b6040516102f59190612179565b60405180910390f35b6103066109d2565b60405161031391906120e9565b60405180910390f35b6103366004803603810190610331919061231f565b610a64565b005b610352600480360381019061034d9190612400565b610a7a565b005b61036e6004803603810190610369919061210b565b610adc565b60405161037b91906120e9565b60405180910390f35b61038c610bef565b60405161039991906120e9565b60405180910390f35b6103bc60048036038101906103b79190612483565b610c7d565b6040516103c99190611e6e565b60405180910390f35b6103ec60048036038101906103e791906124c3565b610d11565b6040516103f991906122d8565b60405180910390f35b61041c6004803603810190610417919061229c565b610d9e565b005b60007f80ac58cd000000000000000000000000000000000000000000000000000000007bffffffffffffffffffffffffffffffffffffffffffffffffffffffff1916827bffffffffffffffffffffffffffffffffffffffffffffffffffffffff191614806104e957507f5b5e139f000000000000000000000000000000000000000000000000000000007bffffffffffffffffffffffffffffffffffffffffffffffffffffffff1916827bffffffffffffffffffffffffffffffffffffffffffffffffffffffff1916145b806104f957506104f882610e22565b5b9050919050565b610508610e8c565b6105128282610f0a565b5050565b6060600080546105259061254e565b80601f01602080910402602001604051908101604052809291908181526020018280546105519061254e565b801561059e5780601f106105735761010080835404028352916020019161059e565b820191906000526020600020905b81548152906001019060200180831161058157829003601f168201915b5050505050905090565b60006105b382610f7e565b6004600083815260200190815260200160002060009054906101000a900473ffffffffffffffffffffffffffffffffffffffff169050919050565b60006105f9826107a8565b90508073ffffffffffffffffffffffffffffffffffffffff168373ffffffffffffffffffffffffffffffffffffffff16141561066a576040517f08c379a0000000000000000000000000000000000000000000000000000000008152600401610661906125f2565b60405180910390fd5b8073ffffffffffffffffffffffffffffffffffffffff16610689610fc9565b73ffffffffffffffffffffffffffffffffffffffff1614806106b857506106b7816106b2610fc9565b610c7d565b5b6106f7576040517f08c379a00000000000000000000000000000000000000000000000000000000081526004016106ee90612684565b60405180910390fd5b6107018383610fd1565b505050565b610717610711610fc9565b8261108a565b610756576040517f08c379a000000000000000000000000000000000000000000000000000000000815260040161074d90612716565b60405180910390fd5b61076183838361111f565b505050565b61076e610e8c565b8060099080519060200190610784929190611d17565b5050565b6107a383838360405180602001604052806000815250610a7a565b505050565b6000806002600084815260200190815260200160002060009054906101000a900473ffffffffffffffffffffffffffffffffffffffff169050600073ffffffffffffffffffffffffffffffffffffffff168173ffffffffffffffffffffffffffffffffffffffff161415610851576040517f08c379a000000000000000000000000000000000000000000000000000000000815260040161084890612782565b60405180910390fd5b80915050919050565b60008073ffffffffffffffffffffffffffffffffffffffff168273ffffffffffffffffffffffffffffffffffffffff1614156108cb576040517f08c379a00000000000000000000000000000000000000000000000000000000081526004016108c290612814565b60405180910390fd5b600360008373ffffffffffffffffffffffffffffffffffffffff1673ffffffffffffffffffffffffffffffffffffffff168152602001908152602001600020549050919050565b61091a610e8c565b6109246000611386565b565b6000610930610e8c565b610bb861093d600861144c565b1061097d576040517f08c379a000000000000000000000000000000000000000000000000000000000815260040161097490612880565b60405180910390fd5b610987600861145a565b6000610993600861144c565b905061099f8382611470565b80915050919050565b6000600760009054906101000a900473ffffffffffffffffffffffffffffffffffffffff16905090565b6060600180546109e19061254e565b80601f0160208091040260200160405190810160405280929190818152602001828054610a0d9061254e565b8015610a5a5780601f10610a2f57610100808354040283529160200191610a5a565b820191906000526020600020905b815481529060010190602001808311610a3d57829003601f168201915b5050505050905090565b610a76610a6f610fc9565b838361148e565b5050565b610a8b610a85610fc9565b8361108a565b610aca576040517f08c379a0000000000000000000000000000000000000000000000000000000008152600401610ac190612716565b60405180910390fd5b610ad6848484846115fb565b50505050565b6060610ae782610f7e565b6000600660008481526020019081526020016000208054610b079061254e565b80601f0160208091040260200160405190810160405280929190818152602001828054610b339061254e565b8015610b805780601f10610b5557610100808354040283529160200191610b80565b820191906000526020600020905b815481529060010190602001808311610b6357829003601f168201915b505050505090506000610b91611657565b9050600081511415610ba7578192505050610bea565b600082511115610bdc578082604051602001610bc49291906128dc565b60405160208183030381529060405292505050610bea565b610be5846116e9565b925050505b919050565b60098054610bfc9061254e565b80601f0160208091040260200160405190810160405280929190818152602001828054610c289061254e565b8015610c755780601f10610c4a57610100808354040283529160200191610c75565b820191906000526020600020905b815481529060010190602001808311610c5857829003601f168201915b505050505081565b6000600560008473ffffffffffffffffffffffffffffffffffffffff1673ffffffffffffffffffffffffffffffffffffffff16815260200190815260200160002060008373ffffffffffffffffffffffffffffffffffffffff1673ffffffffffffffffffffffffffffffffffffffff16815260200190815260200160002060009054906101000a900460ff16905092915050565b6000610d1b610e8c565b610bb8610d28600861144c565b10610d68576040517f08c379a0000000000000000000000000000000000000000000000000000000008152600401610d5f90612880565b60405180910390fd5b610d72600861145a565b6000610d7e600861144c565b9050610d8a8482611751565b610d948184610f0a565b8091505092915050565b610da6610e8c565b600073ffffffffffffffffffffffffffffffffffffffff168173ffffffffffffffffffffffffffffffffffffffff161415610e16576040517f08c379a0000000000000000000000000000000000000000000000000000000008152600401610e0d90612972565b60405180910390fd5b610e1f81611386565b50565b60007f01ffc9a7000000000000000000000000000000000000000000000000000000007bffffffffffffffffffffffffffffffffffffffffffffffffffffffff1916827bffffffffffffffffffffffffffffffffffffffffffffffffffffffff1916149050919050565b610e94610fc9565b73ffffffffffffffffffffffffffffffffffffffff16610eb26109a8565b73ffffffffffffffffffffffffffffffffffffffff1614610f08576040517f08c379a0000000000000000000000000000000000000000000000000000000008152600401610eff906129de565b60405180910390fd5b565b610f138261192b565b610f52576040517f08c379a0000000000000000000000000000000000000000000000000000000008152600401610f4990612a70565b60405180910390fd5b80600660008481526020019081526020016000209080519060200190610f79929190611d17565b505050565b610f878161192b565b610fc6576040517f08c379a0000000000000000000000000000000000000000000000000000000008152600401610fbd90612782565b60405180910390fd5b50565b600033905090565b816004600083815260200190815260200160002060006101000a81548173ffffffffffffffffffffffffffffffffffffffff021916908373ffffffffffffffffffffffffffffffffffffffff160217905550808273ffffffffffffffffffffffffffffffffffffffff16611044836107a8565b73ffffffffffffffffffffffffffffffffffffffff167f8c5be1e5ebec7d5bd14f71427d1e84f3dd0314c0f7b2291e5b200ac8c7c3b92560405160405180910390a45050565b600080611096836107a8565b90508073ffffffffffffffffffffffffffffffffffffffff168473ffffffffffffffffffffffffffffffffffffffff1614806110d857506110d78185610c7d565b5b8061111657508373ffffffffffffffffffffffffffffffffffffffff166110fe846105a8565b73ffffffffffffffffffffffffffffffffffffffff16145b91505092915050565b8273ffffffffffffffffffffffffffffffffffffffff1661113f826107a8565b73ffffffffffffffffffffffffffffffffffffffff1614611195576040517f08c379a000000000000000000000000000000000000000000000000000000000815260040161118c90612b02565b60405180910390fd5b600073ffffffffffffffffffffffffffffffffffffffff168273ffffffffffffffffffffffffffffffffffffffff161415611205576040517f08c379a00000000000000000000000000000000000000000000000000000000081526004016111fc90612b94565b60405180910390fd5b611210838383611997565b61121b600082610fd1565b6001600360008573ffffffffffffffffffffffffffffffffffffffff1673ffffffffffffffffffffffffffffffffffffffff168152602001908152602001600020600082825461126b9190612be3565b925050819055506001600360008473ffffffffffffffffffffffffffffffffffffffff1673ffffffffffffffffffffffffffffffffffffffff16815260200190815260200160002060008282546112c29190612c17565b92505081905550816002600083815260200190815260200160002060006101000a81548173ffffffffffffffffffffffffffffffffffffffff021916908373ffffffffffffffffffffffffffffffffffffffff160217905550808273ffffffffffffffffffffffffffffffffffffffff168473ffffffffffffffffffffffffffffffffffffffff167fddf252ad1be2c89b69c2b068fc378daa952ba7f163c4a11628f55a4df523b3ef60405160405180910390a461138183838361199c565b505050565b6000600760009054906101000a900473ffffffffffffffffffffffffffffffffffffffff16905081600760006101000a81548173ffffffffffffffffffffffffffffffffffffffff021916908373ffffffffffffffffffffffffffffffffffffffff1602179055508173ffffffffffffffffffffffffffffffffffffffff168173ffffffffffffffffffffffffffffffffffffffff167f8be0079c531659141344cd1fd0a4f28419497f9722a3daafe3b4186f6b6457e060405160405180910390a35050565b600081600001549050919050565b6001816000016000828254019250508190555050565b61148a8282604051806020016040528060008152506119a1565b5050565b8173ffffffffffffffffffffffffffffffffffffffff168373ffffffffffffffffffffffffffffffffffffffff1614156114fd576040517f08c379a00000000000000000000000000000000000000000000000000000000081526004016114f490612cb9565b60405180910390fd5b80600560008573ffffffffffffffffffffffffffffffffffffffff1673ffffffffffffffffffffffffffffffffffffffff16815260200190815260200160002060008473ffffffffffffffffffffffffffffffffffffffff1673ffffffffffffffffffffffffffffffffffffffff16815260200190815260200160002060006101000a81548160ff0219169083151502179055508173ffffffffffffffffffffffffffffffffffffffff168373ffffffffffffffffffffffffffffffffffffffff167f17307eab39ab6107e8899845ad3d59bd9653f200f220920489ca2b5937696c31836040516115ee9190611e6e565b60405180910390a3505050565b61160684848461111f565b611612848484846119fc565b611651576040517f08c379a000000000000000000000000000000000000000000000000000000000815260040161164890612d4b565b60405180910390fd5b50505050565b6060600980546116669061254e565b80601f01602080910402602001604051908101604052809291908181526020018280546116929061254e565b80156116df5780601f106116b4576101008083540402835291602001916116df565b820191906000526020600020905b8154815290600101906020018083116116c257829003601f168201915b5050505050905090565b60606116f482610f7e565b60006116fe611657565b9050600081511161171e5760405180602001604052806000815250611749565b8061172884611b93565b6040516020016117399291906128dc565b6040516020818303038152906040525b915050919050565b600073ffffffffffffffffffffffffffffffffffffffff168273ffffffffffffffffffffffffffffffffffffffff1614156117c1576040517f08c379a00000000000000000000000000000000000000000000000000000000081526004016117b890612db7565b60405180910390fd5b6117ca8161192b565b1561180a576040517f08c379a000000000000000000000000000000000000000000000000000000000815260040161180190612e23565b60405180910390fd5b61181660008383611997565b6001600360008473ffffffffffffffffffffffffffffffffffffffff1673ffffffffffffffffffffffffffffffffffffffff16815260200190815260200160002060008282546118669190612c17565b92505081905550816002600083815260200190815260200160002060006101000a81548173ffffffffffffffffffffffffffffffffffffffff021916908373ffffffffffffffffffffffffffffffffffffffff160217905550808273ffffffffffffffffffffffffffffffffffffffff16600073ffffffffffffffffffffffffffffffffffffffff167fddf252ad1be2c89b69c2b068fc378daa952ba7f163c4a11628f55a4df523b3ef60405160405180910390a46119276000838361199c565b5050565b60008073ffffffffffffffffffffffffffffffffffffffff166002600084815260200190815260200160002060009054906101000a900473ffffffffffffffffffffffffffffffffffffffff1673ffffffffffffffffffffffffffffffffffffffff1614159050919050565b505050565b505050565b6119ab8383611751565b6119b860008484846119fc565b6119f7576040517f08c379a00000000000000000000000000000000000000000000000000000000081526004016119ee90612d4b565b60405180910390fd5b505050565b6000611a1d8473ffffffffffffffffffffffffffffffffffffffff16611cf4565b15611b86578373ffffffffffffffffffffffffffffffffffffffff1663150b7a02611a46610fc9565b8786866040518563ffffffff1660e01b8152600401611a689493929190612e98565b602060405180830381600087803b158015611a8257600080fd5b505af1925050508015611ab357506040513d601f19601f82011682018060405250810190611ab09190612ef9565b60015b611b36573d8060008114611ae3576040519150601f19603f3d011682016040523d82523d6000602084013e611ae8565b606091505b50600081511415611b2e576040517f08c379a0000000000000000000000000000000000000000000000000000000008152600401611b2590612d4b565b60405180910390fd5b805181602001fd5b63150b7a0260e01b7bffffffffffffffffffffffffffffffffffffffffffffffffffffffff1916817bffffffffffffffffffffffffffffffffffffffffffffffffffffffff191614915050611b8b565b600190505b949350505050565b60606000821415611bdb576040518060400160405280600181526020017f30000000000000000000000000000000000000000000000000000000000000008152509050611cef565b600082905060005b60008214611c0d578080611bf690612f26565b915050600a82611c069190612f9e565b9150611be3565b60008167ffffffffffffffff811115611c2957611c28611eda565b5b6040519080825280601f01601f191660200182016040528015611c5b5781602001600182028036833780820191505090505b5090505b60008514611ce857600182611c749190612be3565b9150600a85611c839190612fcf565b6030611c8f9190612c17565b60f81b818381518110611ca557611ca4613000565b5b60200101907effffffffffffffffffffffffffffffffffffffffffffffffffffffffffffff1916908160001a905350600a85611ce19190612f9e565b9450611c5f565b8093505050505b919050565b6000808273ffffffffffffffffffffffffffffffffffffffff163b119050919050565b828054611d239061254e565b90600052602060002090601f016020900481019282611d455760008555611d8c565b82601f10611d5e57805160ff1916838001178555611d8c565b82800160010185558215611d8c579182015b82811115611d8b578251825591602001919060010190611d70565b5b509050611d999190611d9d565b5090565b5b80821115611db6576000816000905550600101611d9e565b5090565b6000604051905090565b600080fd5b600080fd5b60007fffffffff0000000000000000000000000000000000000000000000000000000082169050919050565b611e0381611dce565b8114611e0e57600080fd5b50565b600081359050611e2081611dfa565b92915050565b600060208284031215611e3c57611e3b611dc4565b5b6000611e4a84828501611e11565b91505092915050565b60008115159050919050565b611e6881611e53565b82525050565b6000602082019050611e836000830184611e5f565b92915050565b6000819050919050565b611e9c81611e89565b8114611ea757600080fd5b50565b600081359050611eb981611e93565b92915050565b600080fd5b600080fd5b6000601f19601f8301169050919050565b7f4e487b7100000000000000000000000000000000000000000000000000000000600052604160045260246000fd5b611f1282611ec9565b810181811067ffffffffffffffff82111715611f3157611f30611eda565b5b80604052505050565b6000611f44611dba565b9050611f508282611f09565b919050565b600067ffffffffffffffff821115611f7057611f6f611eda565b5b611f7982611ec9565b9050602081019050919050565b82818337600083830152505050565b6000611fa8611fa384611f55565b611f3a565b905082815260208101848484011115611fc457611fc3611ec4565b5b611fcf848285611f86565b509392505050565b600082601f830112611fec57611feb611ebf565b5b8135611ffc848260208601611f95565b91505092915050565b6000806040838503121561201c5761201b611dc4565b5b600061202a85828601611eaa565b925050602083013567ffffffffffffffff81111561204b5761204a611dc9565b5b61205785828601611fd7565b9150509250929050565b600081519050919050565b600082825260208201905092915050565b60005b8381101561209b578082015181840152602081019050612080565b838111156120aa576000848401525b50505050565b60006120bb82612061565b6120c5818561206c565b93506120d581856020860161207d565b6120de81611ec9565b840191505092915050565b6000602082019050818103600083015261210381846120b0565b905092915050565b60006020828403121561212157612120611dc4565b5b600061212f84828501611eaa565b91505092915050565b600073ffffffffffffffffffffffffffffffffffffffff82169050919050565b600061216382612138565b9050919050565b61217381612158565b82525050565b600060208201905061218e600083018461216a565b92915050565b61219d81612158565b81146121a857600080fd5b50565b6000813590506121ba81612194565b92915050565b600080604083850312156121d7576121d6611dc4565b5b60006121e5858286016121ab565b92505060206121f685828601611eaa565b9150509250929050565b60008060006060848603121561221957612218611dc4565b5b6000612227868287016121ab565b9350506020612238868287016121ab565b925050604061224986828701611eaa565b9150509250925092565b60006020828403121561226957612268611dc4565b5b600082013567ffffffffffffffff81111561228757612286611dc9565b5b61229384828501611fd7565b91505092915050565b6000602082840312156122b2576122b1611dc4565b5b60006122c0848285016121ab565b91505092915050565b6122d281611e89565b82525050565b60006020820190506122ed60008301846122c9565b92915050565b6122fc81611e53565b811461230757600080fd5b50565b600081359050612319816122f3565b92915050565b6000806040838503121561233657612335611dc4565b5b6000612344858286016121ab565b92505060206123558582860161230a565b9150509250929050565b600067ffffffffffffffff82111561237a57612379611eda565b5b61238382611ec9565b9050602081019050919050565b60006123a361239e8461235f565b611f3a565b9050828152602081018484840111156123bf576123be611ec4565b5b6123ca848285611f86565b509392505050565b600082601f8301126123e7576123e6611ebf565b5b81356123f7848260208601612390565b91505092915050565b6000806000806080858703121561241a57612419611dc4565b5b6000612428878288016121ab565b9450506020612439878288016121ab565b935050604061244a87828801611eaa565b925050606085013567ffffffffffffffff81111561246b5761246a611dc9565b5b612477878288016123d2565b91505092959194509250565b6000806040838503121561249a57612499611dc4565b5b60006124a8858286016121ab565b92505060206124b9858286016121ab565b9150509250929050565b600080604083850312156124da576124d9611dc4565b5b60006124e8858286016121ab565b925050602083013567ffffffffffffffff81111561250957612508611dc9565b5b61251585828601611fd7565b9150509250929050565b7f4e487b7100000000000000000000000000000000000000000000000000000000600052602260045260246000fd5b6000600282049050600182168061256657607f821691505b6020821081141561257a5761257961251f565b5b50919050565b7f4552433732313a20617070726f76616c20746f2063757272656e74206f776e6560008201527f7200000000000000000000000000000000000000000000000000000000000000602082015250565b60006125dc60218361206c565b91506125e782612580565b604082019050919050565b6000602082019050818103600083015261260b816125cf565b9050919050565b7f4552433732313a20617070726f76652063616c6c6572206973206e6f7420746f60008201527f6b656e206f776e6572206e6f7220617070726f76656420666f7220616c6c0000602082015250565b600061266e603e8361206c565b915061267982612612565b604082019050919050565b6000602082019050818103600083015261269d81612661565b9050919050565b7f4552433732313a2063616c6c6572206973206e6f7420746f6b656e206f776e6560008201527f72206e6f7220617070726f766564000000000000000000000000000000000000602082015250565b6000612700602e8361206c565b915061270b826126a4565b604082019050919050565b6000602082019050818103600083015261272f816126f3565b9050919050565b7f4552433732313a20696e76616c696420746f6b656e2049440000000000000000600082015250565b600061276c60188361206c565b915061277782612736565b602082019050919050565b6000602082019050818103600083015261279b8161275f565b9050919050565b7f4552433732313a2061646472657373207a65726f206973206e6f74206120766160008201527f6c6964206f776e65720000000000000000000000000000000000000000000000602082015250565b60006127fe60298361206c565b9150612809826127a2565b604082019050919050565b6000602082019050818103600083015261282d816127f1565b9050919050565b7f4552433732313a20746f74616c20737570706c79207265616368656400000000600082015250565b600061286a601c8361206c565b915061287582612834565b602082019050919050565b600060208201905081810360008301526128998161285d565b9050919050565b600081905092915050565b60006128b682612061565b6128c081856128a0565b93506128d081856020860161207d565b80840191505092915050565b60006128e882856128ab565b91506128f482846128ab565b91508190509392505050565b7f4f776e61626c653a206e6577206f776e657220697320746865207a65726f206160008201527f6464726573730000000000000000000000000000000000000000000000000000602082015250565b600061295c60268361206c565b915061296782612900565b604082019050919050565b6000602082019050818103600083015261298b8161294f565b9050919050565b7f4f776e61626c653a2063616c6c6572206973206e6f7420746865206f776e6572600082015250565b60006129c860208361206c565b91506129d382612992565b602082019050919050565b600060208201905081810360008301526129f7816129bb565b9050919050565b7f45524337323155524953746f726167653a2055524920736574206f66206e6f6e60008201527f6578697374656e7420746f6b656e000000000000000000000000000000000000602082015250565b6000612a5a602e8361206c565b9150612a65826129fe565b604082019050919050565b60006020820190508181036000830152612a8981612a4d565b9050919050565b7f4552433732313a207472616e736665722066726f6d20696e636f72726563742060008201527f6f776e6572000000000000000000000000000000000000000000000000000000602082015250565b6000612aec60258361206c565b9150612af782612a90565b604082019050919050565b60006020820190508181036000830152612b1b81612adf565b9050919050565b7f4552433732313a207472616e7366657220746f20746865207a65726f2061646460008201527f7265737300000000000000000000000000000000000000000000000000000000602082015250565b6000612b7e60248361206c565b9150612b8982612b22565b604082019050919050565b60006020820190508181036000830152612bad81612b71565b9050919050565b7f4e487b7100000000000000000000000000000000000000000000000000000000600052601160045260246000fd5b6000612bee82611e89565b9150612bf983611e89565b925082821015612c0c57612c0b612bb4565b5b828203905092915050565b6000612c2282611e89565b9150612c2d83611e89565b9250827fffffffffffffffffffffffffffffffffffffffffffffffffffffffffffffffff03821115612c6257612c61612bb4565b5b828201905092915050565b7f4552433732313a20617070726f766520746f2063616c6c657200000000000000600082015250565b6000612ca360198361206c565b9150612cae82612c6d565b602082019050919050565b60006020820190508181036000830152612cd281612c96565b9050919050565b7f4552433732313a207472616e7366657220746f206e6f6e20455243373231526560008201527f63656976657220696d706c656d656e7465720000000000000000000000000000602082015250565b6000612d3560328361206c565b9150612d4082612cd9565b604082019050919050565b60006020820190508181036000830152612d6481612d28565b9050919050565b7f4552433732313a206d696e7420746f20746865207a65726f2061646472657373600082015250565b6000612da160208361206c565b9150612dac82612d6b565b602082019050919050565b60006020820190508181036000830152612dd081612d94565b9050919050565b7f4552433732313a20746f6b656e20616c7265616479206d696e74656400000000600082015250565b6000612e0d601c8361206c565b9150612e1882612dd7565b602082019050919050565b60006020820190508181036000830152612e3c81612e00565b9050919050565b600081519050919050565b600082825260208201905092915050565b6000612e6a82612e43565b612e748185612e4e565b9350612e8481856020860161207d565b612e8d81611ec9565b840191505092915050565b6000608082019050612ead600083018761216a565b612eba602083018661216a565b612ec760408301856122c9565b8181036060830152612ed98184612e5f565b905095945050505050565b600081519050612ef381611dfa565b92915050565b600060208284031215612f0f57612f0e611dc4565b5b6000612f1d84828501612ee4565b91505092915050565b6000612f3182611e89565b91507fffffffffffffffffffffffffffffffffffffffffffffffffffffffffffffffff821415612f6457612f63612bb4565b5b600182019050919050565b7f4e487b7100000000000000000000000000000000000000000000000000000000600052601260045260246000fd5b6000612fa982611e89565b9150612fb483611e89565b925082612fc457612fc3612f6f565b5b828204905092915050565b6000612fda82611e89565b9150612fe583611e89565b925082612ff557612ff4612f6f565b5b828206905092915050565b7f4e487b7100000000000000000000000000000000000000000000000000000000600052603260045260246000fdfea2646970667358221220588e4faf0dc581ea3b899be98a78f8529f050359d2691d1bddb41593f48b6f4564736f6c63430008090033",
  "devdoc": {
    "kind": "dev",
    "methods": {
      "approve(address,uint256)": {
        "details": "See {IERC721-approve}."
      },
      "balanceOf(address)": {
        "details": "See {IERC721-balanceOf}."
      },
      "getApproved(uint256)": {
        "details": "See {IERC721-getApproved}."
      },
      "isApprovedForAll(address,address)": {
        "details": "See {IERC721-isApprovedForAll}."
      },
      "name()": {
        "details": "See {IERC721Metadata-name}."
      },
      "owner()": {
        "details": "Returns the address of the current owner."
      },
      "ownerOf(uint256)": {
        "details": "See {IERC721-ownerOf}."
      },
      "renounceOwnership()": {
        "details": "Leaves the contract without owner. It will not be possible to call `onlyOwner` functions anymore. Can only be called by the current owner. NOTE: Renouncing ownership will leave the contract without an owner, thereby removing any functionality that is only available to the owner."
      },
      "safeTransferFrom(address,address,uint256)": {
        "details": "See {IERC721-safeTransferFrom}."
      },
      "safeTransferFrom(address,address,uint256,bytes)": {
        "details": "See {IERC721-safeTransferFrom}."
      },
      "setApprovalForAll(address,bool)": {
        "details": "See {IERC721-setApprovalForAll}."
      },
      "setBaseTokenURI(string)": {
        "details": "Sets the base token URI prefix."
      },
      "supportsInterface(bytes4)": {
        "details": "See {IERC165-supportsInterface}."
      },
      "symbol()": {
        "details": "See {IERC721Metadata-symbol}."
      },
      "tokenURI(uint256)": {
        "details": "See {IERC721Metadata-tokenURI}."
      },
      "transferFrom(address,address,uint256)": {
        "details": "See {IERC721-transferFrom}."
      },
      "transferOwnership(address)": {
        "details": "Transfers ownership of the contract to a new account (`newOwner`). Can only be called by the current owner."
      }
    },
    "stateVariables": {
      "baseTokenURI": {
        "details": "Base token URI used as a prefix by tokenURI()."
      }
    },
    "version": 1
  },
  "userdoc": {
    "kind": "user",
    "methods": {},
    "version": 1
  },
  "storageLayout": {
    "storage": [
      {
        "astId": 138,
        "contract": "contracts/NFTFactory.sol:NFTFactory",
        "label": "_name",
        "offset": 0,
        "slot": "0",
        "type": "t_string_storage"
      },
      {
        "astId": 140,
        "contract": "contracts/NFTFactory.sol:NFTFactory",
        "label": "_symbol",
        "offset": 0,
        "slot": "1",
        "type": "t_string_storage"
      },
      {
        "astId": 144,
        "contract": "contracts/NFTFactory.sol:NFTFactory",
        "label": "_owners",
        "offset": 0,
        "slot": "2",
        "type": "t_mapping(t_uint256,t_address)"
      },
      {
        "astId": 148,
        "contract": "contracts/NFTFactory.sol:NFTFactory",
        "label": "_balances",
        "offset": 0,
        "slot": "3",
        "type": "t_mapping(t_address,t_uint256)"
      },
      {
        "astId": 152,
        "contract": "contracts/NFTFactory.sol:NFTFactory",
        "label": "_tokenApprovals",
        "offset": 0,
        "slot": "4",
        "type": "t_mapping(t_uint256,t_address)"
      },
      {
        "astId": 158,
        "contract": "contracts/NFTFactory.sol:NFTFactory",
        "label": "_operatorApprovals",
        "offset": 0,
        "slot": "5",
        "type": "t_mapping(t_address,t_mapping(t_address,t_bool))"
      },
      {
        "astId": 1126,
        "contract": "contracts/NFTFactory.sol:NFTFactory",
        "label": "_tokenURIs",
        "offset": 0,
        "slot": "6",
        "type": "t_mapping(t_uint256,t_string_storage)"
      },
      {
        "astId": 7,
        "contract": "contracts/NFTFactory.sol:NFTFactory",
        "label": "_owner",
        "offset": 0,
        "slot": "7",
        "type": "t_address"
      },
      {
        "astId": 1934,
        "contract": "contracts/NFTFactory.sol:NFTFactory",
        "label": "_tokenIds",
        "offset": 0,
        "slot": "8",
        "type": "t_struct(Counter)1588_storage"
      },
      {
        "astId": 1937,
        "contract": "contracts/NFTFactory.sol:NFTFactory",
        "label": "baseTokenURI",
        "offset": 0,
        "slot": "9",
        "type": "t_string_storage"
      }
    ],
    "types": {
      "t_address": {
        "encoding": "inplace",
        "label": "address",
        "numberOfBytes": "20"
      },
      "t_bool": {
        "encoding": "inplace",
        "label": "bool",
        "numberOfBytes": "1"
      },
      "t_mapping(t_address,t_bool)": {
        "encoding": "mapping",
        "key": "t_address",
        "label": "mapping(address => bool)",
        "numberOfBytes": "32",
        "value": "t_bool"
      },
      "t_mapping(t_address,t_mapping(t_address,t_bool))": {
        "encoding": "mapping",
        "key": "t_address",
        "label": "mapping(address => mapping(address => bool))",
        "numberOfBytes": "32",
        "value": "t_mapping(t_address,t_bool)"
      },
      "t_mapping(t_address,t_uint256)": {
        "encoding": "mapping",
        "key": "t_address",
        "label": "mapping(address => uint256)",
        "numberOfBytes": "32",
        "value": "t_uint256"
      },
      "t_mapping(t_uint256,t_address)": {
        "encoding": "mapping",
        "key": "t_uint256",
        "label": "mapping(uint256 => address)",
        "numberOfBytes": "32",
        "value": "t_address"
      },
      "t_mapping(t_uint256,t_string_storage)": {
        "encoding": "mapping",
        "key": "t_uint256",
        "label": "mapping(uint256 => string)",
        "numberOfBytes": "32",
        "value": "t_string_storage"
      },
      "t_string_storage": {
        "encoding": "bytes",
        "label": "string",
        "numberOfBytes": "32"
      },
      "t_struct(Counter)1588_storage": {
        "encoding": "inplace",
        "label": "struct Counters.Counter",
        "members": [
          {
            "astId": 1587,
            "contract": "contracts/NFTFactory.sol:NFTFactory",
            "label": "_value",
            "offset": 0,
            "slot": "0",
            "type": "t_uint256"
          }
        ],
        "numberOfBytes": "32"
      },
      "t_uint256": {
        "encoding": "inplace",
        "label": "uint256",
        "numberOfBytes": "32"
      }
    }
  }
}